:100000000C94EE0C0C94130D0C94130D0C94130D16
:100010000C94130D0C94130D0C94130D0C94130DE0
:100020000C94130D0C94130D0C94DF0F0C94130D02
:100030000C94130D0C94130D0C94130D0C94130DC0
:100040000C94130D0C94130D0C94130D0C94130DB0
:100050000C94130D0C94130D0C94130D0C94130DA0
:100060000C94130D0C94130D0C94130D0C94130D90
:100070000C94130D0C94130D0C94130D0C94130D80
:100080000C94130D0C94130D0C94140D0C9455300A
:100090000C94130D0C94130D0C94130D0C94130D60
:1000A0000C94130D0C94130D0C94130D0C94130D50
:1000B0000C94130D0C94130D0C94130D0C94EE274B
:1000C0000C94130D0C94842B0C94C3310C94130DCD
:1000D0000C94130D0C94130D0C94130D0C94130D20
:1000E0000C94130D0C94130D0C94130D0C94130D10
:1000F0000C94130D0C94130D0C94130D0C94130D00
:100100000C94130D0C94130D0C94130D0C94130DEF
:100110000C949C310C945F2B0C94130D0C94130DC8
:100120000C94130D0C94130D0C94130D0C94130DCF
:100130000C94130D0C94130D0C94130D0C94572761
:100140000C94600D0C941E0D0C9481300C94130DC6
:100150000C94130D0C94D62A0C94F9310C94130DB5
:100160000C94130D0C94130D0C94130D0C94130D8F
:100170000C94130D0C94130D0C94130D0C94130D7F
:100180000C94130D0C94130D0C94130D0C94130D6F
:100190000C94130D0C94130D0C94130D0C94130D5F
:1001A0000C94130D0C94130D0C94130D0C94130D4F
:1001B0000C94130D0C94130D0C94130D0C94130D3F
:1001C0000C94130D0C94130D0C94130D0C94130D2F
:1001D0000C94130D0C94130D0C94130D0C94130D1F
:1001E0000C94130D0C94130D0C94130D0C94130D0F
:1001F0000C94130D0C94EC730C94130D6364696EE2
:100200006F70737578585B001E03430068006100CF
:100210006D0065006C0065006F006E002D004D00E4
:1002200069006E00690000002A034B006100730042
:100230007000650072002000260020004F0073004F
:10024000770061006C006400200047006D006200D0
:10025000480000000403090409023E00020100C036
:10026000320904000001020201000524001001040B
:100270002402060524060001070582030800FF0981
:10028000040100020A00000007050402100005072F
:100290000583021000051201100102000008D016AB
:1002A000B20401000102DC018F1090109110921035
:1002B0009310941089108A108E108D100000000188
:1002C00000AF2830294F2961357D35873589108861
:1002D000359739AA394000070001AF2830294F2946
:1002E000EB3481358735891088359739AA39C000B4
:1002F000070001AF2830294F2975357D35873589AD
:100300001088359739AA395000070001AF283029E5
:100310004F2979357D358735891088359739AA3940
:10032000A400070001AF2830294F29EA39353A39AE
:100330003A89103A3A1B4137414001040001AF2885
:1003400030294F29F939353A393A89103A3A1B415F
:1003500037410004040001AF2830294F29083A35FD
:100360003A393A89103A3A1B4137410004070001F3
:10037000AF2830294F29173A353A393A89103A3A95
:100380001B4137410010040001AF2830294F2926B6
:100390003A353A393A89103A3A1B41374100100749
:1003A0000001B332723393331E582C5831583258EF
:1003B00034588E108D1000000001002A2AB22A2025
:1003C0002C1250155022502350C2528E108D100006
:1003D00000000000AF2830294F29195D3D5D415DC7
:1003E0008910425DC55FD85F1C02070000DF6262B2
:1003F00063956329642C642F643064316415651C33
:10040000650020080005DF62626395639210931017
:10041000941089108A108E108D100000000100DFEA
:1004200062626395632365266529652A652B6525C8
:10043000672C670020080005DF62626395633367FD
:1004400051675F67606780677267D1682C0008003A
:1004500005AF2830294F29C259D659DA598910DCFD
:100460005A8E108D104000070001DF6262639563B1
:10047000FD69146A246A256AD96D6B6DF66ED00029
:10048000080005004E4F4E4500000000000000002F
:10049000000000000000000000000000000000005C
:1004A00000000000014D465F554C5452414C4947F5
:1004B00048540000000000000000000000000000A0
:1004C0000000000000034D465F554C5452414C491A
:1004D0004748545F4556315F383042000000000005
:1004E000000000000000044D465F554C5452414C42
:1004F000494748545F4556315F3136344200000069
:1005000000000000000000024D465F554C5452416F
:100510004C494748545F43000000000000000000C1
:100520000000000000000000054D465F434C4153B1
:100530005349435F4D494E495F344200000000007B
:10054000000000000000000000064D465F434C41E3
:10055000535349435F314B0000000000000000008E
:1005600000000000000000000000074D465F434C03
:1005700041535349435F314B5F3742000000000055
:100580000000000000000000000000084D465F432E
:100590004C41535349435F344B00000000000000BE
:1005A000000000000000000000000000094D465F50
:1005B000434C41535349435F344B5F374200000083
:1005C000000000000000000000000000000A495385
:1005D0004F3134343433415F534E494646000000B6
:1005E00000000000000000000000000000000B49B7
:1005F000534F3134343433415F5245414445520006
:100600000000000000000000000000000000000CDE
:100610004E54414732313500000000000000000018
:1006200000000000000000000000000000000000CA
:100630000D564943494E495459000000000000003E
:1006400000000000000000000000000000000000AA
:10065000000E49534F31353639335F534E494646C4
:10066000000000000000000000000000000000008A
:1006700000000F534C325332303032000000000083
:10068000000000000000000000000000000000006A
:1006900000000010544954414749545354414E44BA
:1006A0004152440000000000000000000000000073
:1006B0000000000012454D343233330000000000CA
:1006C000000000000000000000000000000000002A
:1006D0000000000000114E46435F434F4D4D414E18
:1006E00044000000000000000000000000000000C6
:1006F00000000000000001000001000101000001F5
:1007000001000100000100010100010000010100E1
:1007100000010001010000010100010000010100D1
:1007200000010001010001000001000101000001C1
:1007300001000100000100010100010000010100B1
:1007400000010001010001000001000101000001A1
:100750000100010000010100000100010100000191
:100760000100010000010001010001000001010081
:100770000001000101000001010001000001010071
:100780000001000101000100000100010100000161
:100790000100010000010100000100010100000151
:1007A0000100010000010001010001000001010041
:1007B0000001000101000100000100010100000131
:1007C0000100010000010001010001000001010021
:1007D0000001000101000001010001000001010011
:1007E0000001000101000100000100010100000101
:1007F000010001000001008040C020A060E01090D6
:1008000050D030B070F0088848C828A868E8189818
:1008100058D838B878F8048444C424A464E4149400
:1008200054D434B474F40C8C4CCC2CAC6CEC1C9CB8
:100830005CDC3CBC7CFC028242C222A262E21292DC
:1008400052D232B272F20A8A4ACA2AAA6AEA1A9AB8
:100850005ADA3ABA7AFA068646C626A666E61696A0
:1008600056D636B676F60E8E4ECE2EAE6EEE1E9E58
:100870005EDE3EBE7EFE018141C121A161E111919A
:1008800051D131B171F1098949C929A969E9199988
:1008900059D939B979F9058545C525A565E5159570
:1008A00055D535B575F50D8D4DCD2DAD6DED1D9D28
:1008B0005DDD3DBD7DFD038343C323A363E313934C
:1008C00053D333B373F30B8B4BCB2BAB6BEB1B9B28
:1008D0005BDB3BBB7BFB078747C727A767E7179710
:1008E00057D737B777F70F8F4FCF2FAF6FEF1F9FC8
:1008F0005FDF3FBF7FFF004E4F4E4500000000000E
:1009000000000000000000000000000000000000E7
:1009100000000000000000015549445F52414E4470
:100920004F4D00000000000000000000000000002B
:100930000000000000000000025549445F4C45469D
:10094000545F494E4352454D454E5400000000004F
:10095000000000000000000000035549445F5249B8
:100960004748545F494E4352454D454E54000000A0
:1009700000000000000000000000045549445F4CE6
:100980004546545F44454352454D454E5400000092
:100990000000000000000000000000055549445F11
:1009A00052494748545F44454352454D454E5400D3
:1009B0000000000000000000000000000643594352
:1009C0004C455F53455454494E47530000000000C6
:1009D0000000000000000000000000000007535469
:1009E0004F52455F4D454D000000000000000000E3
:1009F000000000000000000000000000000008529D
:100A00004543414C4C5F4D454D0000000000000047
:100A100000000000000000000000000000000009CD
:100A2000544F47474C455F4649454C440000000041
:100A300000000000000000000000000000000000B6
:100A40000A53544F52455F4C4F47000000000000CE
:100A50000000000000000000000000000000000096
:100A6000000B434C4F4E450000000000000000000A
:100A70000000000000000000000000000000000076
:100A800000000C434C4F4E455F4D465500000000A2
:100A90000000000000000000000000000000000056
:100AA000000000004F46460000000000000000006B
:100AB0000000000000000000000000000000000036
:100AC00000000000014D454D4F525900000000004C
:100AD0000000000000000000000000000000000016
:100AE0000000000000024C495645000000000000D4
:100AF00000000000000000000000000000000000F6
:100B0000000000000000004E4F4E450000000000B5
:100B100000000000000000000000000000000000D5
:100B20000000000000000001504F574552454400AE
:100B300000000000000000000000000000000000B5
:100B40000000000000000000025445524D494E4193
:100B50004C5F434F4E4E00000000000000000000BC
:100B6000000000000000000000035445524D494EB3
:100B7000414C5F5258545800000000000000000033
:100B800000000000000000000000045345545449D8
:100B90004E475F4348414E474500000000000000BB
:100BA0000000000000000000000000054D454D4F12
:100BB00052595F53544F524544000000000000005A
:100BC000000000000000000000000000064D454D40
:100BD0004F52595F4348414E4745440000000000D2
:100BE0000000000000000000000000000008434F6B
:100BF0004445435F52580000000000000000000020
:100C00000000000000000000000000000000094398
:100C10004F4445435F5458000000000000000000AE
:100C200000000000000000000000000000000007BD
:100C30004649454C445F44455445435445440000AF
:100C400000000000000000000000000000000000A4
:100C50000A4C4F474D454D5F46554C4C0000000037
:100C60000000000000000000000000000000000084
:100C7000005445535421202D2D2D2048656C6C6F58
:100C800020576F726C640A0D0025632C25630025C4
:100C9000356400416E7920696E74656765722066FF
:100CA000726F6D203020746F2025752E205265667E
:100CB0006572656E636520766F6C74616765207719
:100CC000696C6C2062652028564343202A205448D2
:100CD000524553484F4C44202F2034303935292079
:100CE0006D562E002575002535640030203D206EA0
:100CF0006F2074696D656F75740D0A312D36303053
:100D0000203D20313030206D73202D2036303030A2
:100D100030206D732074696D656F757400257520C2
:100D20006D730025342E345800253575206D56001E
:100D30002575202866726F6D2077686963682025A5
:100D400075206E6F6E2D766F6C6174696C6529000D
:100D500025750025750025632C25630052414E44FE
:100D60004F4D004E4F205549442E004368616D653C
:100D70006C656F6E4D696E6920526576472025530C
:100D8000207573696E67204C5546412025532063BA
:100D90006F6D70696C656420776974682041565284
:100DA0002D4743432025532E204261736564206FF5
:100DB0006E20746865206F70656E2D736F75726339
:100DC00065204E464320746F6F6C204368616D65EB
:100DD0006C656F6E4D696E692E2068747470733A1D
:100DE0002F2F6769746875622E636F6D2F656D7341
:100DF00065632F4368616D656C656F6E4D696E69E3
:100E000020636F6D6D6974202553000031353131D9
:100E1000313500352E342E30003838383732313302
:100E2000000D0A000D0A000D0A000D0A000D0A004F
:100E30000D0A00643130303A4F4B000000000000D2
:100E400000000000000000000000000000000000A2
:100E500000000000653130313A4F4B20574954486B
:100E6000205445585400000000000000000000001D
:100E700000000000006E3131303A57414954494E6C
:100E80004720464F5220584D4F44454D000000002A
:100E9000000000000000C83230303A554E4B4E4F33
:100EA000574E20434F4D4D414E440000000000007E
:100EB00000000000000000C93230313A494E56416E
:100EC0004C494420434F4D4D414E442055534147DA
:100ED0004500000000000000CA3230323A494E5648
:100EE000414C494420504152414D45544552000027
:100EF000000000000000000000783132303A464126
:100F00004C534500000000000000000000000000FD
:100F100000000000000000000000793132313A5436
:100F200052554500000000000000000000000000D5
:100F30000000000000000000000000CB3230333A17
:100F400054494D454F55540000000000000000007A
:100F50000000000000000000000000005645525351
:100F6000494F4E000000000000000000000000009B
:100F700000008B1C434F4E46494700000000000014
:100F80000000000000000000B31CAD1C55494400E7
:100F90000000000000000000000000000000000051
:100FA000141DD51C524541444F4E4C5900000000C1
:100FB0000000000000000000791D6D1D55504C4FD1
:100FC000414400000000000000000000A61D0000D9
:100FD00000000000444F574E4C4F414400000000B9
:100FE00000000000AB1D000000000000524553450A
:100FF000540000000000000000000000B01D0000D0
:1010000000000000555047524144450000000000D8
:1010100000000000BB1D0000000000004D454D53C6
:10102000495A4500000000000000000000000000D8
:101030000000C61D55494453495A450000000000B0
:1010400000000000000000000000DE1D5242555468
:10105000544F4E000000000000000000000000009F
:10106000FB1DF41D52425554544F4E5F4C4F4E479A
:101070000000000000000000171E101E4C425554D6
:10108000544F4E000000000000000000000000006F
:10109000331E2C1E4C425554544F4E5F4C4F4E47FE
:1010A00000000000000000004F1E481E4C45444751
:1010B0005245454E00000000000000000000000006
:1010C0006B1E641E4C454452454400000000000065
:1010D0000000000000000000871E801E4C4F474D9E
:1010E0004F44450000000000000000000000000028
:1010F000A11E9C1E4C4F474D454D000000000000B6
:1011000000000000000000000000B61E4C4F4744E5
:101110004F574E4C4F41440000000000DB1E0000C2
:10112000000000004C4F4753544F52450000000050
:1011300000000000E01E0000000000004C4F47438C
:101140004C4541520000000000000000E31E00007A
:101150000000000053455454494E47000000000071
:101160000000000000000000EB1EE61E434C45415D
:10117000520000000000000000000000F31E00000C
:101180000000000053544F524500000000000000D2
:1011900000000000F71E000000000000524543411F
:1011A0004C4C00000000000000000000FB1E00008E
:1011B000000000004348415247494E4700000000EC
:1011C00000000000000000000000FF1E48454C50D9
:1011D000000000000000000000000000071F0000E9
:1011E00000000000525353490000000000000000BE
:1011F00000000000000000000000431F535953543A
:1012000049434B0000000000000000000000000007
:101210000000761F53454E445F52415700000000C6
:101220000000000000001C200000000053454E4458
:101230000000000000000000000000000000921FFD
:1012400000000000474554554944000000000000DC
:1012500000000000EF2000000000000044554D5049
:101260005F4D46550000000000000000BB2000005C
:1012700000000000434C4F4E455F4D4655000000B6
:1012800000000000D8200000000000004944454E46
:101290005449465900000000000000000C210000E5
:1012A0000000000054494D454F5554000000000017
:1012B0000000000000000000492129215448524547
:1012C00053484F4C440000000000000000000000A4
:1012D000B6219C214155544F43414C4942524154FF
:1012E0004500000049220000000000004649454C2E
:1012F00044000000000000000000000000000000AA
:101300000B223522434C4F4E4500000000000000E8
:1013100000000000752200000000000054455354F6
:1013200000000000000000000000000000000000BD
:1013300000008C22000000000000000000000000FF
:1013400000000000000000000000000053414B3A84
:1013500009005549443A0900415451413A090054A1
:1013600068657265206973206174206C65617374AF
:10137000206F6E65206D6F726520636172642074EA
:101380007970652063616E6469646174652C2062A4
:10139000757420746865726520776173206E6F7450
:1013A00020656E6F756768207465726D696E616C1B
:1013B000206275666665722073706163652E0D0A22
:1013C000000D0A00427566666572203D3D3D202590
:1013D000640004000109010000000000000000009A
:1013E0000000000000000000004E58500000000007
:1013F0000000000000000000004D49464152452019
:101400004D696E690000000000000000000000004F
:1014100000000000000000000000000000000000CC
:1014200000000000000000000000000000000000BC
:10143000000000000000000000040001080100009E
:10144000000000000000000000000000000000009C
:101450004E58500000000000000000000000000096
:101460004D494641524520436C6173736963203195
:101470006B00000000000000000000000000000001
:10148000000000000000000000000000000000005C
:10149000000000000000000000000000000000004C
:1014A0000200011801000000000000000000000020
:1014B000000000000000004E585000000000000036
:1014C000000000000000004D494641524520436C99
:1014D000617373696320346B00000000000000003A
:1014E00000000000000000000000000000000000FC
:1014F00000000000000000000000000000000000EC
:101500000000000000000044000100010000000095
:1015100000000000000000000000000000004E5825
:1015200050000000000000000000000000004D49D5
:101530004641524520556C7472616C69676874004D
:10154000000000000000000000000000000000009B
:10155000000000000000000000000000000000008B
:101560000000000000000000000000000000440334
:10157000012001757781028000000000000000005A
:1015800000000005004E5850000000000000000060
:1015900000000000004D4946415245204445534655
:1015A00069726500000000000000000000000000FB
:1015B000000000000000000000000000000000002B
:1015C000000000000000000000000000000000001B
:1015D00000000000004403012001757781028000B3
:1015E0000000000000000000000005004E58500000
:1015F0000000000000000000000000004D494641CE
:1016000052452044455346697265204556310000D5
:1016100000000000000000000000000000000000CA
:1016200000000000000000000000000000000000BA
:10163000000000000000000000000000040301287A
:10164000013877B14A434F503331000000000000A9
:1016500000090149424D00000000000000000000A8
:101660000000004A434F50333100000000000000EA
:10167000000000000000000000000000000000006A
:10168000000000000000000000000000000000005A
:10169000000000000000000000000000000000004A
:1016A00000000048000120017877B1024A434F5002
:1016B00076323431000000000C0149424D00000038
:1016C000000000000000000000004A434F5033318A
:1016D0002076322E342E3100000000000000000081
:1016E00000000000000000000000000000000000FA
:1016F00000000000000000000000000000000000EA
:101700000000000000000000000048000120013837
:1017100033B14A434F503431563232000000000C8E
:101720000149424D000000000000000000000000E0
:10173000004A434F5034312076322E3200000000F0
:101740000000000000000000000000000000000099
:101750000000000000000000000000000000000089
:101760000000000000000000000000000000000079
:101770000004000128013833B14A434F5034315638
:101780003233310000000D0149424D0000000000DD
:1017900000000000000000004A434F503431207622
:1017A000322E332E31000000000000000000000047
:1017B0000000000000000000000000000000000029
:1017C0000000000000000000000000000000000019
:1017D000000000000000000004000188010000007B
:1017E00000000000000000000000000000000049B0
:1017F0006E66696E656F6E00000000000000004DAF
:10180000494641524520436C617373696320316BD3
:1018100000000000000000000000000000000000C8
:1018200000000000000000000000000000000000B8
:1018300000000000000000000000000000000002A6
:1018400000019801000000000000000000000000FE
:1018500000000000000047656D706C7573000000AB
:101860000000000000004D50434F530000000000F6
:101870000000000000000000000000000000000068
:101880000000000000000000000000000000000058
:101890000000000000000000000000000000000048
:1018A000000000000000000C01000000000000002B
:1018B00000000000000000000000000000496E6E03
:1018C0006F766973696F6E2052265400004A6577FF
:1018D000656C000000000000000000000000000037
:1018E00000000000000000000000000000000000F8
:1018F00000000000000000000000000000000000E8
:1019000000000000000000000000000000020001D4
:10191000380100000000000000000000000000008E
:10192000000000004E6F6B696100000000000000C5
:10193000000000004D494641524520436C617373DD
:10194000696320346B202D20656D756C617465644E
:1019500020283632313220436C6173736963290069
:101960000000000000000000000000000000000077
:101970000000000008000138010000000000000025
:1019800000000000000000000000004E6F6B696165
:1019900000000000000000000000004D49464152D8
:1019A0004520436C617373696320346B202D20657F
:1019B0006D756C61746564202836313331204E4674
:1019C00043290000000000000000000000000000AB
:1019D00000000000000000000000000011241FBEF5
:1019E000CFEFCDBFDFE3DEBF00E00CBF18BE19BEF6
:1019F0001ABE1BBE14E2A0E0B0E2E2E6FFEF00E098
:101A00000BBF02C007900D92AC38B107D9F71BBECF
:101A100027E3ACE8B4E201C01D92A53DB207E1F7AF
:101A2000D3D10C94AF7FC2C2EF93FF93E091B92F53
:101A3000F091BA2F0995FF91EF911895EF93FF93CD
:101A4000E091B72EF091B82E0995FF91EF9118957E
:101A50003BB78BBFFB01879196913BBF08953BB786
:101A60008BBFCB0142E20D94F00F3BB70B0143E279
:101A70000D94F00F3BB78BBFCB0145E20D94F00FF7
:101A80003BB746E208C02091CF0127FDFCCF2227BB
:101A90002093CA0108954093CA0128ED31E02093B4
:101AA00034003093CB016091C4017091C5018091E5
:101AB000C60199270895FC014093CA0184910895B5
:101AC0000F9200240F932F933F934F935F930FB781
:101AD0000F93EF93FF93EAB1FBB15191442735B1D6
:101AE00024B1569578F400928C080092000806E123
:101AF0000A95F1F700C001E00093000803E00093AD
:101B00008C0804C00AE10A95F1F70000215030402A
:101B100019F40E94C42A0CC04F5F477011F4519110
:101B200002C000C000C00AE00A95F1F700C0D9CF9A
:101B3000FF91EF910F910FBF5F914F913F912F91C7
:101B40000F910F901895F190E190D190C190B190C4
:101B5000A190919081900B941B942B943B944B9467
:101B60005B946B947B948B949B94AB94BB94CB943D
:101B7000DB94EB94FB940895F801D894E4DF589437
:101B8000E2DFD894E0CFF801D894DDDF5894DBDFB2
:101B9000F801D894D8CFF801D894D5CFF80158944B
:101BA000D2CFF80170965894CEDFF8013896D894C9
:101BB000CADFF8015894C7CFF8015894C4DFD8940D
:101BC000C2DFF8015894BFCFFF90EF90DF90CF9025
:101BD000BF90AF909F908F907F906F905F904F904D
:101BE0003F902F90112408952F923F924F925F9231
:101BF0006F927F928F929F92AF92BF92CF92DF921D
:101C0000EF92FF920F931F93FB017190619051909F
:101C1000419031902190119001908A01CDDFFC011B
:101C2000719261925192419231922192119201925C
:101C30001F910F91C9CF2F923F924F925F926F9257
:101C40007F928F929F92AF92BF92CF92DF92EF924C
:101C5000FF920F931F93FC017190619051904190FE
:101C600031902190119001908A018DDFFB017192DA
:101C700061925192419231922192119201921F915F
:101C80000F91A2CF2F923F924F925F926F927F92CD
:101C90008F929F92AF92BF92CF92DF92EF92FF927C
:101CA000CF93DF93EB01DA01BF01F90171906190ED
:101CB000519041903190219011900190F990E990CC
:101CC000D990C990B990A990999089907F246E2459
:101CD0005D244C243B242A2419240824FB01099563
:101CE0007D926D925D924D923D922D921D920D923C
:101CF000019721F7D9017D926D925D924D923D92AF
:101D00002D921D920D92DF91CF915ECF2F923F9237
:101D10004F925F926F927F928F929F92AF92BF92FB
:101D2000CF92DF92EF92FF92CF93DF93EB01DA0134
:101D3000BF01788069805A804B803C802D801E8056
:101D40000F80FB010995F901F190E190D190C190CC
:101D5000B190A190919081907F246E245D244C24B9
:101D60003B242A2419240824F990E990D990C99099
:101D7000B990A99099908990F901F192E192D1924C
:101D8000C192B192A192919281927D926D925D9257
:101D90004D923D922D921D920D92019751F6DF9139
:101DA000CF9112CFFDE0E3EC6DCFFDE0E3ECAECFE1
:101DB000FDE0ECED67CFFDE0ECEDA8CFFDE0ECEB56
:101DC00061CFFDE0E1EDA2CF13D10E94B0190E94D6
:101DD0004C1AADD21092520684E08093420682E6FD
:101DE00080938601C1E0C0932606C093210686E059
:101DF00080932206C093310612E0109332061092AF
:101E00002A0610922B068FE08093290689E580939D
:101E100080019AE5909381018093820180E4809310
:101E20004106809346069091B200907F9093B20055
:101E30009091B20092609093B20090E3909341062B
:101E40009093460680935006C0934606109345062D
:101E500003E00093410683E18093010821E030E034
:101E600020932608309327082093280830932908C8
:101E700010928C0880938008109223031092210303
:101E8000D8E0D093220381E180932003E091D92F01
:101E9000F091DA2F828593858093380390933903EC
:101EA0008CE380938203D093800380938303D09349
:101EB000810366D10E94EE1BB7D124D7C0930002E4
:101EC000109201021093020200930402C0932002B8
:101ED000D09321020E94431817D1D2E0C1E1809132
:101EE000030481FF25C08091010480FDFCCFD093C5
:101EF00003040E94501AAED10E94211C0BD70E94ED
:101F0000AB19E091C92FF091CA2F19950E94942521
:101F10000E948D1BE091D92FF091DA2F87818130BB
:101F200011F4C093952C8681813011F4C093942CC8
:101F30000E94F21BA9D7E091C72FF091C82F1995E5
:101F4000E091C12FF091C22F1995C9CF292F3327C6
:101F50002230310559F02330310569F02130310547
:101F6000E9F482E190E026E932E01CC08EE390E0E3
:101F700028E532E017C099278130910549F028F013
:101F8000029761F4E8E0F2E005C0E4E5F2E002C0A7
:101F9000E8E2F2E0849190E09F0104C080E090E0EC
:101FA00020E030E0FA012083318308951F920F92E0
:101FB0000FB60F92112408B60F9218BEFFCF1F92D2
:101FC0000F920FB60F92112408B60F9218BE8F937E
:101FD0009F938EB19FB180589F4F8EB99FB99F91AB
:101FE0008F910F9008BE0F900FBE0F901F90189505
:101FF0008091780083FF0AC088E08093780088EDA4
:1020000084BF81E0809380000D94FE008BEC809370
:102010005200809150008860809350008091510060
:1020200083FFFCCF82EC809355008091500080614B
:10203000809350008091510084FFFCCF88ED84BFD5
:1020400084E0809340001EB81FB881E08093430075
:102050002FE730E020930A0430930B0420930C0404
:1020600030930D04809300048093020480E88093F1
:102070000001089588ED84BF81E080937900089580
:1020800088ED84BF8BE1809380000895809150009B
:102090008260809350008091510081FFFCCF82E0EC
:1020A0008093CA01EDE1F0E0E491E0936200ECE19D
:1020B000F0E0E491E09363001092CA0180E880931D
:1020C00065008BEB8093660080915600897F80933A
:1020D0005600809156008460809356008091600085
:1020E0008160809360000895E0E4F0E084818E7F59
:1020F0008483E0E6F0E080818E7F8083E0E5F0E09D
:1021000080818D7F8083089587E08093A2007894FA
:102110000895089580E090E0089508950895089541
:10212000089508950895089508950F931F93CF93E8
:10213000C82F0DEB1FE2D8011296ED91FC91139779
:1021400019950E94CC25E091D92FF091DA2FC58303
:10215000B9E1CB9FB001112468557D4F49E150E0B2
:10216000C8010E947278D801ED91FC911995D801AF
:102170001696ED91FC911797CF911F910F9119949D
:1021800049E150E068EA72E08DEB9FE20E947278CC
:10219000E091D92FF091DA2F8581C7CF0F931F934C
:1021A000E091D92FF091DA2F8B019C01458163E1F9
:1021B00083E894E00E94291B1F910F910895FF92DC
:1021C0000F931F93CF93DF931F92CDB7DEB78C0190
:1021D0009E012F5F3F4FAC0163E183E894E00E94D2
:1021E000411BF82E882389F089819FDFF80140E0A8
:1021F0008191882319F04F5F4F31D1F7E091D62FAD
:10220000F091D72FB80181E119958F2D0F90DF91B3
:10221000CF911F910F91FF9008959B01AC0163E155
:1022200083E894E00C94681B08950C9464780895F6
:102230000F931F93CF938C01C62FCC2339F00E94AC
:102240006478F80181938F01C150F7CFCF911F912E
:102250000F9108950E9464780E9464780E946478C7
:102260000C946478CF93DF93EC0161507109DA012B
:10227000420F531FFC01CF018C1B9D0BA417B50708
:1022800021F41082DF91CF91089562307105C8F377
:102290009D91392F32953F703A3010F4305D01C076
:1022A000395C30839F709A3010F4905D01C0995C66
:1022B0009183329662507109DECFCF93DF93EC01A8
:1022C000DA0120E030E05C91552351F111969C91A8
:1022D0001197992339F12617370711F180ED850FF2
:1022E0008A3020F08FEB850F8630E0F480ED890F87
:1022F0008A3020F04FEB490F4630A0F4E52FF0E094
:10230000513408F0F797E295E07F913410F4982F5C
:1023100001C097539E2B99932F5F3F4F1296D3CFB7
:10232000C90102C080E090E0DF91CF910895E0E61E
:10233000F6E080E1858382E0868388E085838AE118
:102340008183E0EAF9E01682178280EC858388E1D8
:102350008483E0E0F1E0128A8BE6838B148A158A8D
:1023600020EA208F99E0918F128E148E158E168E92
:1023700084E0808B12A23CE633A314A215A210A61F
:1023800011A612A624A795A716A680A30895411505
:10239000510509F449C020E12093660623E020930B
:1023A000A0092091A10927FFFCCF2091A0097093DB
:1023B000A0092091A10927FFFCCF2091A0096093DB
:1023C000A0092091A10927FFFCCF2091A00921E0BD
:1023D0002093120180931C0190931D0140931401DE
:1023E00050931501109222018CE894E28093280109
:1023F000909329014093240150932501809110016D
:102400008068809310018091200180688093200172
:102410008091100187FDFCCF80E3809311018093B0
:10242000210180E18093650608954115510509F465
:1024300069C020E12093660626E02093A009209140
:10244000A10927FFFCCF2091A00920E12093650678
:10245000000000002093660622E02093A00920914E
:10246000A10927FFFCCF2091A0097093A00920911A
:10247000A10927FFFCCF2091A0096093A00920911A
:10248000A10927FFFCCF2091A009109212012CE88E
:1024900034E220931C0130931D01409314015093AA
:1024A000150120E1209322018093280190932901B6
:1024B00040932401509325018091100180688093FE
:1024C000100180912001806880932001809110018B
:1024D00087FDFCCF80E3809311018093210180E18F
:1024E00080936506E091D92FF091DA2F87818630AD
:1024F00019F481E18093952C8681863019F481E16D
:102500008093942C0895CF92DF92EF92FF92CF9315
:10251000DF93C090D82FD12CE12CF12C8DE0CC0C86
:10252000DD1CEE1CFF1C8A95D1F7C114D10481E09B
:10253000E806F10408F04EC080E18093660686E06C
:102540008093A0098091A10987FFFCCF8091A00909
:1025500080E180936506000000008093660682E0BB
:102560008093A0098091A10987FFFCCF8091A009E9
:102570001092A0098091A10987FFFCCF8091A0094A
:102580001092A0098091A10987FFFCCF8FEFE81A74
:10259000F80A8091A009C0E0D0E1C701B60158DA7D
:1025A0008093A0098091A10987FFFCCF8091A009A9
:1025B0009093A0098091A10987FFFCCF8091A00989
:1025C00082E0C80ED11CE11CF11C219731F780E19B
:1025D000809365068091010480FDFCCF82E08093AA
:1025E0000304DF91CF91FF90EF90DF90CF9008959B
:1025F000CF92DF92EF92FF92CF93DF93C090D82FCC
:10260000D12CE12CF12C8DE0CC0CDD1CEE1CFF1C40
:102610008A95D1F7C114D10481E0E806F10438F0BD
:10262000DF91CF91FF90EF90DF90CF906CCF8FEF45
:10263000E81AF80AC1E2D0E0219791F324DAC70141
:10264000B6010DDA20DA8FEFD81AE80AF80AF4CFCB
:10265000CF92DF92EF92FF920F931F93CF93DF936E
:10266000C090D82FD12CE12CF12C8DE0CC0CDD1CAE
:10267000EE1CFF1C8A95D1F7C114D10481E0E80655
:10268000F10408F04FC080E18093660683E08093F8
:10269000A0098091A10987FFFCCF8091A009109229
:1026A000A0098091A10987FFFCCF8091A009109219
:1026B000A0098091A10987FFFCCF8FEFE81AF80AE3
:1026C0008091A00901E210E00150110941F1DBD92C
:1026D000D7D9D9D9C0E0D0E01092A0098091A10942
:1026E00087FFFCCF6091A00970E01092A009809153
:1026F000A10987FFFCCF8091A009782BCE01B5D925
:10270000C2D92296C11581E0D80731F7C701B601B9
:10271000B1D9B9D98FEFD81AE80AF80AD5CF80E134
:1027200080936506E091D92FF091DA2F878186306A
:1027300019F490E19093952C9681963049F420E11C
:102740002093942C853059F483E18093952C02C01A
:102750008530D1F3953019F483E18093942C8091E6
:10276000010480FDFCCF82E080930304DF91CF91D0
:102770001F910F91FF90EF90DF90CF900895CF922F
:10278000DF92EF92FF920F931F934115E0E25E07F5
:102790006105710508F06BC06901E12CF12C00E0C6
:1027A00010E220E030E0041B150B260B370BC0169F
:1027B000D106E206F30610F49701860120E120938A
:1027C000660626E02093A0092091A10927FFFCCFEF
:1027D0002091A00920E120936506000000002093CD
:1027E000660622E02093A0092091A10927FFFCCFD3
:1027F0002091A0095093A0092091A10927FFFCCFA7
:102800002091A0094093A0092091A10927FFFCCFA6
:102810002091A009109212012CE834E220931C01AF
:1028200030931D01009314011093150120E12093B2
:102830002201809328019093290100932401109391
:102840002501809110018068809310018091200102
:102850008068809320018091100187FDFCCF80E388
:10286000809311018093210180E18093650681E0CE
:102870001F910F91FF90EF90DF90CF900895CF922E
:10288000DF92EF92FF920F931F934115E0E25E07F4
:102890006105710508F05DC06901E12CF12C00E0D3
:1028A00010E220E030E0041B150B260B370BC0169E
:1028B000D106E206F30610F49701860120E1209389
:1028C000660623E02093A0092091A10927FFFCCFF1
:1028D0002091A0095093A0092091A10927FFFCCFC6
:1028E0002091A0094093A0092091A10927FFFCCFC6
:1028F0002091A00921E02093120180931C01909364
:102900001D010093140110931501109222018CE80F
:1029100094E280932801909329010093240110935D
:102920002501809110018068809310018091200121
:102930008068809320018091100187FDFCCF80E3A7
:10294000809311018093210180E18093650681E0ED
:1029500001C080E01F910F91FF90EF90DF90CF902A
:1029600008958091CF0187FDFCCF0895FADF809113
:10297000CF0181FF0BC086E38093CA01EBECF1E04D
:1029800021E030E088ED90E084BF20830895EF924D
:10299000FF920F931F93CF93DF93EC017B018A018A
:1029A0001092C201DEDFD701CE01800F911F26E019
:1029B00048ED50E061E070E0EBECF1E0C817D907BA
:1029C00079F0C093C0013D2F3F713093C101209336
:1029D000CA0144BF60833091C4013D932196EECF7C
:1029E000C801DF91CF911F910F91FF90EF90089553
:1029F0003F924F925F926F927F928F929F92AF928F
:102A0000BF92CF92DF92EF92FF920F931F93CF93DB
:102A1000DF938B01542E652E282F2F71722EEC011F
:102A2000C21BD109A3DF9DDF83E38093CA0110920B
:102A3000C1011092C2017801052D162D85E3482EA3
:102A400098EDC92ED12C88248394912C3BECA32E95
:102A5000BB24B39443E3342E0115110501F17092A8
:102A6000C001F70181917F018093C40101501109D8
:102A700021F07394F0E27F12EFCFC093C0018D2F4D
:102A80008F718093C1014092CA01C601F50184BFD4
:102A90008082A09666DF3092CA01712CDDCF852D31
:102AA000962DDF91CF911F910F91FF90EF90DF90C6
:102AB000CF90BF90AF909F908F907F906F905F90DE
:102AC0004F903F9008951F93CF93DF93CDB7DEB71C
:102AD000A097CDBFDEBF863009F4F2C0D8F48330B2
:102AE00009F472C030F4813061F1823009F440C0E1
:102AF00002C1843009F48DC0853009F0FCC0E0913A
:102B0000CD2FF091CE2FCE01019619958091D32F24
:102B100041E0ABC0893009F4D7C040F4873009F4F4
:102B2000D1C0883009F0E7C0EEDCE5C08B3009F495
:102B3000DEC008F4DAC08C3009F0DDC08EEC93E220
:102B4000D8C010E08091D32F181750F46EDBE1E06D
:102B5000F0E0EC0FFD1FE10FF11D80831F5FF2CF4E
:102B60008091D52F853009F098C080EE898395C07B
:102B700011E08091D32F873009F010E0E091CD2F44
:102B8000F091CE2FCE01019619954091D32F31E0CF
:102B9000141708F082C03323A9F0812F90E0E1E000
:102BA000F0E0EC0FFD1FE80FF91F208131E02F3F0F
:102BB00009F030E0E1E0F0E0EC0FFD1FE80FF91F55
:102BC0002F5F20831F5FE4CFE091CD2FF091CE2FB8
:102BD000CE01019619958091D32F41E0815008F4E0
:102BE0005CC04423D9F3282F30E0E1E0F0E0EC0FA3
:102BF000FD1FE20FF31F908141E09F3F09F040E08D
:102C0000E1E0F0E0EC0FFD1FE20FF31F9F5F908308
:102C1000E5CF11E08091D32F873009F010E0E091EB
:102C2000CD2FF091CE2FCE01019619954091D32F43
:102C300031E0141790F53323A1F0812F90E0E1E00B
:102C4000F0E0EC0FFD1FE80FF91F208131E02111AA
:102C500030E0E1E0F0E0EC0FFD1FE80FF91F21503C
:102C600020831F5FE6CF411103C08150E0F715C0FC
:102C7000282F30E0E1E0F0E0EC0FFD1FE20FF31F42
:102C8000908141E0911140E0E1E0F0E0EC0FFD1FA8
:102C9000E20FF31F91509083E8CFE091CF2FF09196
:102CA000D02FCE0101961995E091D62FF091D72F14
:102CB0004091D32FBE016F5F7F4F83E119951BC0F9
:102CC000B5D319C0C5DC17C080910008813021F44C
:102CD00090918C08933009F080E080FD03C00E9441
:102CE000562609C00E947C2606C0AFD204C088ECDC
:102CF00093E20E94AD24A096CDBFDEBFDF91CF91BD
:102D00001F910895E0E0F6E080E6828388E1868BFB
:102D1000858B0895CF93C0910806C095C6FF12C059
:102D200080918E248A3050F08A30E1F4E091D92FDE
:102D3000F091DA2F8181C7DE80918E248F5F80939E
:102D40008E2410C08C2F807669F480918E2481505F
:102D50008A3030F4E091D92FF091DA2F8081B3DE00
:102D600010928E24C5FF12C080918D248A3050F0BD
:102D70008A30D9F4E091D92FF091DA2F8381A3DE44
:102D800080918D248F5F80938D240FC0C07669F46D
:102D900080918D2481508A3030F4E091D92FF091C8
:102DA000DA2F828190DE10928D24CF9108959B01BD
:102DB000AC016DE086EF98E08BC4E82FF0E0E852BC
:102DC000F04D88E0638381503C968111FBCF0895DC
:102DD0000F931F939B01E091D92FF091DA2FE80F09
:102DE000F11D8A0140816DE086EF98E032D41F9199
:102DF0000F9108950F931F93CF93DF931F92CDB739
:102E0000DEB7082FAB019E012F5F3F4F6DE086EFCD
:102E100098E037D4182F882319F06981802FCDDFEF
:102E2000812F0F90DF91CF911F910F9108950895F9
:102E3000EF92FF920F931F93CF937B01C42F0EB19C
:102E40001FB12091080430910904022B132B682F25
:102E500083E090E20E94D7746C2F83E090E20E949E
:102E6000D774612F83E090E20E94D774602F83E0D3
:102E700090E20E94D7746C2F70E0C701CF911F9130
:102E80000F91FF90EF90A4C408953F924F925F92EC
:102E90006F927F928F929F92AF92BF92CF92DF926A
:102EA000EF92FF920F931F93CF93DF937C01E90181
:102EB000C0900020D0900120960122503843C901D3
:102EC000A0E0B0E0481759076A077B0708F05FC029
:102ED000E2E0CE1AE0E4DE0A2A013B014C0E5D1E60
:102EE000611C711C481659066A067B0648F0241BB3
:102EF000350B8E01021B130BE9013324339403C0FD
:102F000000E010E0312C4601A12CB12C48155905E8
:102F10006A057B0510F5CA018E5F9F4B2A013B01B4
:102F20004C0E5D1E611C711C481459046A047B041C
:102F300028F4AE01BC01C7012ADA18C0C41AD50AA8
:102F4000A601BC01C70123DAAE014C195D0964E991
:102F500074E2C7018C0D9D1D07C04C195D09BA01B3
:102F60006C567B4DAE01C7010E94A078332041F022
:102F70000C0F1D1FF701E00FF11FCE0DDF1D02C06A
:102F800081E006C0EC17FD07D9F31292FBCF80E079
:102F9000DF91CF911F910F91FF90EF90DF90CF9035
:102FA000BF90AF909F908F907F906F905F904F9069
:102FB0003F900895209190243091912480E098E0F2
:102FC000821B930BE4E9F4E29F0124593442281751
:102FD000390710F41192F8CF84E994E28093922497
:102FE0009093932480E098E0809390249093912490
:102FF00082E090E4809300209093012042E050E032
:1030000060E070E480E090E210DAE091D92FF09176
:10301000DA2F87818A3019F480E18093952C86819C
:103020008A3019F480E18093942C08958091902443
:103030009091912490582091002030910120821B82
:10304000930B0895E8EDFFE287833C9690E3E83325
:10305000F907D1F7813049F018F0823059F008951E
:1030600010928F2487E197E109C080938F248EE925
:1030700098E104C010928F2488E197E18093D62FC5
:103080009093D72F08950F931F93CF93DF931F92A1
:10309000CDB7DEB7E091D92FF091DA2F8481D2DF5E
:1030A00084E994E2809392249093932400E018E0C2
:1030B000009390241093912441E050E0BE016F5F93
:1030C0007F4F80E090E063DCE0919224F0919324C4
:1030D000DF01C8011D920197E9F78981882341F03A
:1030E00042E050E060E070E480E090E250D917C028
:1030F00082E090E4809300209093012042E050E031
:1031000060E070E480E090E290D981E0898341E062
:1031100050E0BE016F5F7F4F80E090E069DCE0919E
:10312000D62FF091D72F40E060E070E08FEF199537
:103130000F90DF91CF911F910F9108950F931F93DF
:10314000CF93DF93CEB1DFB1A0910804B091090411
:103150002091902430919124E42FF0E08F010C5FB6
:103160001F4F2017310758F1CA2BDB2B2450310990
:103170002E1B3F0B2093902430939124A0919224F6
:10318000B09193248C9311964C9311971296DC93E3
:103190001297CD01049680939224909393241396D2
:1031A000CC93DB01EC01415018F02D912993FBCF1A
:1031B000E80FF91FE0939224F093932412C080E06B
:1031C00041DFE091D92FF091DA2F87818A3019F40D
:1031D00081E18093952C86818A3019F481E1809376
:1031E000942CDF91CF911F910F9108951F93CF934E
:1031F000DF931F92CDB7DEB79E012F5F3F4FAC012B
:1032000063E083EA9AE03DD2182F882311F0898188
:1032100019DF812F0F90DF91CF911F9108950F93A8
:103220001F93E091D92FF091DA2F8B019C014481FB
:1032300063E083EA9AE00DD21F910F9108959B01FC
:10324000AC0163E083EA9AE043C20F931F93CF93EC
:10325000DF938091902490919124811528E092072A
:1032600008F074C06091002070910120C0E0D0E8A7
:10327000C61BD70B00E018E0A801481B590BC41768
:10328000D50758F184E994E2D0D820919024309168
:1032900091248091002090910120985F821B930BD4
:1032A0008093002090930120021B130BE4E9F4E2C9
:1032B000CF01845994428017910710F41192F8CFEE
:1032C00084E994E2809392249093932480E098E0A0
:1032D00080939024909391242EC02097B9F1AE0151
:1032E00084E994E2A2D8A8014C1B5D0BBE016C5688
:1032F0007B4D84E994E20E94A97880919224909178
:1033000093248C1B9D0B8093922490939324809103
:103310009024909191248C0F9D1F809390249093E2
:1033200091248091002090910120C80FD91FC09353
:103330000020D093012042E050E060E070E480E0A3
:1033400090E2DF91CF911F910F916FC8DF91CF91E4
:103350001F910F91089580918F24811176CF089548
:1033600043E650E068ED7FE281E090E010CB43E679
:1033700050E068ED7FE281E090E03ACB0F931F933D
:10338000CF93DF93CFEFC80FC83008F047C0D82FD6
:103390000E94CC258091D82FC81779F159D9C093B4
:1033A000D82F8CE0C89F900111242552304D2093D6
:1033B000D92F3093DA2FA7D8E091D92FF091DA2FB7
:1033C00085810E949510E091D92FF091DA2F8481A8
:1033D00039DE01E010E0085D1F426091D82FC8017E
:1033E0008852904D0E94417F6091D92F7091DA2FC1
:1033F000C8018752904D0E944A7F8FE18D0FE09166
:10340000D92FF091DA2F9781943011F48093952C75
:103410009681943029F48093942C02C080E001C0FE
:1034200081E0DF91CF911F910F9108958091D82F66
:1034300099E04CE0915099F0282F30E02F5F3F4FFA
:1034400027703327822F429FF001439FF00D1124F4
:10345000E852F04D2085222369F38F5F8FCF0895C6
:10346000FC019091D82F9F5C908311820895CF9397
:10347000FC01218121110DC0BC01C081E091D62F3A
:10348000F091D72F41E082E1199580ED8C0FCF911B
:1034900075CF80E0CF91089588E18093010608956B
:1034A0008091942C823191F030F48031B9F050F455
:1034B0008823A9F132C0833169F090EE980F9830DB
:1034C00088F02BC088E08093050627C088E08093B1
:1034D000070623C08091040683FF12C088E0809312
:1034E00006061BC09091962C9F5F913019F0909327
:1034F000962C15C01092962C9091040693FD04C052
:1035000088E0809305060BC098E090930606803211
:1035100021F081508093942C02C01092942C8091C1
:10352000952C823191F030F48031C1F050F4882331
:10353000A9F132C0833169F090EE980F983088F08D
:103540002BC080E18093050627C080E180930706A9
:1035500023C08091040684FF12C080E18093060698
:103560001BC09091972C9F5F913019F09093972CEE
:1035700008951092972C9091040694FD04C080E168
:1035800080930506089590E190930606803221F01D
:1035900081508093952C08951092952C08959B014D
:1035A000AC016BE086E09BE093C0E8EDFFE298E0C1
:1035B000282F2071887021116287811161879150B5
:1035C0003C969111F8CF222329F090E190930606C2
:1035D0001092952C882329F088E08093060610929B
:1035E000942C08950F931F939B018A01803131F42D
:1035F000E091D92FF091DA2F478107C0883049F444
:10360000E091D92FF091DA2F46816BE086E09BE0C4
:1036100020D01F910F9108950F931F93CF93DF93A5
:103620001F92CDB7DEB7082FAB019E012F5F3F4F32
:103630006BE086E09BE025D0182F882319F0698184
:10364000802FB3DF812F0F90DF91CF911F910F91CA
:1036500008950F931F93FC01662379F094916150B4
:10366000941309C0BF016F5F7F4FA801C9010E9479
:10367000847881E003C0B196EFCF80E01F910F9175
:103680000895CF92DF92EF92FF921F93CF93DF9333
:10369000EC017A016901162F112389F0BE016F5FD9
:1036A0007F4FC7010E947B781150892B31F4FE01B6
:1036B000C491F601C08381E003C0A196EDCF80E004
:1036C000DF91CF911F91FF90EF90DF90CF90089501
:1036D000CF930196CCE26623D1F0FC01DA01AD0173
:1036E0007491772341F021153105A9F07D9331962E
:1036F00021503109F4CF623038F02115310559F0ED
:10370000FD01C0834F5F5F4F61508196E4CF232B53
:1037100011F0FA011082CF91089580912002806803
:10372000809320028091230280FFFCCF81E0809370
:103730002302A0911002B0911102AE5BB109B7FF54
:1037400002C0A0E0B0E020E038EB4BE050E00E9487
:10375000FE77E091D92FF091DA2F843F9140A8F4C1
:103760008781873019F480E18093952C868187309A
:1037700019F480E18093942C8091D32F882389F0D1
:10378000E091C52FF091C62F19948781873019F4E5
:1037900081E18093952C8681873019F481E18093B3
:1037A000942C0895BC0183E090E20C948974CF932B
:1037B000DF93FC016491EC012196662331F083E0F4
:1037C00090E20E94D774CE01F4CFDF91CF9108959B
:1037D000AB01BC0183E090E20C94B37480E280936F
:1037E00062060895CF93DF938091982C823031F553
:1037F00083E090E20E9440750E941E7083E090E298
:103800000E945C75EC0197FD19C0E091D92FF091F1
:10381000DA2F8781833019F483E18093952C868198
:10382000833019F483E18093942C8C2FB9D68111C5
:1038300005C08C2FDF91CF910C94CD24DF91CF91D7
:1038400008958091982C813079F028F08230C9F069
:10385000833011F12EC08091680685FF31C08FE062
:103860008093022081E015C08091022081508093D6
:103870000220811125C00E9446100E94B67382E08A
:1038800008C08091680685FD18C08FE080930220F3
:1038900083E08093982C0DC080910220815080930A
:1038A000022081110DC00E947B730E94741010923F
:1038B000982C8091982C823019F4C2D70C949425BE
:1038C0000895E091D92FF091DA2F8781823019F491
:1038D00081E18093952C8681823019F481E1809377
:1038E000942C0895E091D92FF091DA2F87818230BE
:1038F00019F480E18093952C8681823019F480E15F
:103900008093942C089583E090E20C94647483E097
:1039100090E20C94AF7529E13EE03F932F9323E1B1
:103920003EE03F932F932CE03EE03F932F932BE01C
:103930003EE03F932F932BE63DE03F932F9322E011
:103940002F931F929F938F930E9409798DB79EB7F3
:103950000E968DBF9EBF85E6089560E072E00E94DE
:10396000CE1085E60895FB0120812F3349F4218193
:10397000211106C060E072E00E940D1185E60895F5
:10398000CB010E94DF10882371F0E091D92FF091D4
:10399000DA2FCF01835D9F4265818F5F9F4F0E9429
:1039A000417F84E608958AEC0895EF92FF920F9389
:1039B0001F93CF93DF93CDB7DEB7A097CDBFDEBF08
:1039C0007C010091D32F10E00115110591F483E6DD
:1039D0009DE09F938F9382E08F931F92FF92EF92CF
:1039E0000E9409790F900F900F900F900F900F90F9
:1039F00010C0E091CD2FF091CE2FCE0101961995F8
:103A00009801AE014F5F5F4F60E072E0C7010E9416
:103A1000321185E6A096CDBFDEBFDF91CF911F9119
:103A20000F91FF90EF900895DF92EF92FF920F9326
:103A30001F93CF93DF93CDB7DEB7A097CDBFDEBF87
:103A40007B010091D32F10E06CE57DE0C7010E945F
:103A50007B78892BC1F4D12CED2CF12CE016F106EA
:103A600058F40E941511E1E0F0E0EC0FFD1FEE0D9F
:103A7000FF1D8083D394F0CF8091D52F853069F4DA
:103A800080EE89830AC0A70160E270E0CE01019652
:103A90000E945D1108171907A1F4E091CF2FF09152
:103AA000D02FCE0101961995E091D62FF091D72F06
:103AB0004091D32FBE016F5F7F4F83E1199584E65C
:103AC00001C08AECA096CDBFDEBFDF91CF911F91E0
:103AD0000F91FF90EF90DF900895FC018091D42F1B
:103AE000882311F081E301C080E38083118285E6A1
:103AF0000895FB012181211127C02081213321F468
:103B000081E08093D42F04C0203321F41092D42F6D
:103B100084E608952F33C1F41F9220E32F931F9260
:103B200021E32F9326E53DE03F932F9322E02F934F
:103B30001F929F938F930E9409798DB79EB70A9623
:103B40008DBF9EBF85E608958AEC08958FEB93E1C3
:103B5000F6D48EE608958FE394E10CD58EE60895B1
:103B6000E0ECF4E081818E7F81830E947B730E9470
:103B70003A1084E60895E0ECF4E081818E7F818341
:103B80000E947B730E94401084E60895EDEBFFE2F3
:103B900025892F9324892F9323E53DE03F932F938D
:103BA00022E02F931F929F938F930E9409798DB7E4
:103BB0009EB708968DBF9EBF85E608952091D32FAE
:103BC0001F922F9320E53DE03F932F9322E02F9308
:103BD0001F929F938F930E9409798DB79EB7089685
:103BE0008DBF9EBF85E6089540E052E0BC0180E0B5
:103BF000EFD885E60895FB0120812F3341F4218120
:103C0000211105C060E072E0D2D885E6089580E019
:103C1000F1D8882319F0ABDB84E608958AEC089587
:103C200040E052E0BC0181E0D3D885E60895FB0175
:103C300020812F3341F42181211105C060E072E021
:103C4000B6D885E6089581E0D5D8882319F08FDBB2
:103C500084E608958AEC089540E052E0BC0182E0D9
:103C6000B7D885E60895FB0120812F3341F42181E7
:103C7000211105C060E072E09AD885E6089582E0DF
:103C8000B9D8882319F073DB84E608958AEC089587
:103C900040E052E0BC0183E09BD885E60895FB013B
:103CA00020812F3341F42181211105C060E072E0B1
:103CB0007ED885E6089583E09DD8882319F057DBE8
:103CC00084E608958AEC089540E052E0BC0180E16A
:103CD00089DC85E60895FB0120812F3341F42181A1
:103CE000211105C060E072E05ADC85E6089580E1AC
:103CF00093DC882319F03BDB84E608958AEC089571
:103D000040E052E0BC0188E06DDC85E60895FB01EF
:103D100020812F3341F42181211105C060E072E040
:103D20003EDC85E6089588E077DC882319F01FDB08
:103D300084E608958AEC089560E072E070DA85E622
:103D40000895FB0120812F3341F42181211105C009
:103D500060E072E074DA85E60895CB0147DA8823E3
:103D600019F005DB84E608958AEC0895CF93DF937C
:103D7000EC015CD9813028E0920718F09C013850A2
:103D800002C020E030E03F932F939F938F9380E316
:103D90009DE09F938F9382E08F931F92DF93CF9349
:103DA0000E9409798DB79EB70A968DBF9EBF85E6A2
:103DB000DF91CF91089585E497E1DCD38EE60895F5
:103DC00044DA84E60895F6D884E6089560E072E067
:103DD00047DB85E60895CB014ADB811102C08AECFE
:103DE000089584E608950E94F81284E608950E94DA
:103DF000281384E608950E94831284E60895809132
:103E0000680680FD02C089E7089588E70895DF927B
:103E1000EF92FF920F931F93CF93DF93EC010FEF7D
:103E200011E08CE5E82E8FE0F82E9CE2D92EB70148
:103E300089EE93E20E947B78892BD1F00115110560
:103E4000B9F0DE01F7012491ED012196C801019737
:103E5000222341F00130110529F02C93DE01319627
:103E60008C01F1CFDC928C0188E1E80EF11CDFCFF0
:103E70002197188285E6DF91CF911F910F91FF90D6
:103E8000EF90DF900895FC0180912002806880937C
:103E900020028091230280FFFCCF81E080932302E7
:103EA000A0911002B0911102AE5BB109B7FF02C040
:103EB000A0E0B0E020E038EB4BE050E00E94FE775D
:103EC000AA27BB279F938F9389E29DE09F938F93AF
:103ED00082E08F931F92FF93EF930E9409798DB731
:103EE0009EB708968DBF9EBF85E608954EB15FB11F
:103EF0002091080430910904242B352B3F932F93F4
:103F000023E23DE03F932F9322E02F931F929F9354
:103F10008F930E9409798DB79EB708968DBF9EBF7B
:103F200085E608950F931F93CF93DF931F921F92FF
:103F3000CDB7DEB78B01E091D92FF091DA2F8581D3
:103F40008B3009F06FC0E091C52FF091C62F199505
:103F500081E080931C2D60E270E0C8010E94C1786E
:103F60000097F9F4F80101900020E9F73197E01B80
:103F7000F10BE0FD59C0F695E795E130F10539F414
:103F800087E090E08093BB2F9093BC2F37C053E025
:103F9000EE0FFF1F5A95E1F7E093BB2FF093BC2F74
:103FA0002DC098012C5F3F4F82179307E9F5A801B8
:103FB00062E070E0CE0101960E945D11898190E07F
:103FC000982F88272A81820F911D8093BB2F909371
:103FD000BC2F0B5F1F4FF80101900020E9F73197CC
:103FE000E01BF10BE0FD20C0F695E79533E0EE0F06
:103FF000FF1F3A95E1F7E817F907B0F06091BB2F82
:104000007091BC2F695F7F4F83E0769567958A95A5
:10401000E1F7A80189EB9EE20E945D110E942B2F1F
:104020008FEF03C089EC01C08AEC0F900F90DF91F5
:10403000CF911F910F910895EF92FF920F931F93CD
:10404000CF93DF931F921F92CDB7DEB78B01E09124
:10405000D92FF091DA2F85818B3009F080C0E09163
:10406000C52FF091C62F199582E080931C2D60E238
:1040700070E0C8010E94C1787C01892B31F5F801FC
:1040800001900020E9F73197E01BF10BE0FD69C0DA
:10409000F695E795E130F10539F487E090E08093FB
:1040A000BB2F9093BC2F47C053E0EE0FFF1F5A95D4
:1040B000E1F7CF0169E070E00E94EA77E81BF90BB5
:1040C000E093BB2FF093BC2F36C0C8010496E816CE
:1040D000F90609F046C0A80162E070E0CE01019641
:1040E0000E945D11898190E0982F88272A81820F94
:1040F000911D8093BB2F9093BC2F8730910529F0A1
:104100009C0127703327232B61F587010F5F1F4F19
:10411000F80101900020E9F73197E01BF10BE0FD79
:1041200020C0F695E79533E0EE0FFF1F3A95E1F7D3
:10413000E817F907B0F06091BB2F7091BC2F695F51
:104140007F4F83E0769567958A95E1F7A80189EB23
:104150009EE20E945D110E942B2F8FEF03C089EC1D
:1041600001C08AEC0F900F90DF91CF911F910F91BA
:10417000FF90EF900895E091D92FF091DA2F85818B
:104180008B30A1F4E091C52FF091C62F199585E0F1
:1041900080931C2D0E9412500E942B2F8CE190E5E1
:1041A0008093A72C9093A82C8FEF089589EC089505
:1041B0008BE00E949510E091C52FF091C62F1995C4
:1041C00088E080931C2D0E9412500E942B2F8CE1BE
:1041D00090E58093A72C9093A82C8FEF0895E09101
:1041E000D92FF091DA2F85818B30A1F4E091C52F82
:1041F000F091C62F199583E080931C2D0E941250D8
:104200000E942B2F8CE190E58093A72C9093A82CF3
:104210008FEF089589EC0895E091D92FF091DA2F6E
:1042200085818B30A1F4E091C52FF091C62F1995AF
:1042300086E080931C2D0E9412500E942B2F8CE14F
:1042400090E58093A72C9093A82C8FEF089589EC8C
:104250000895E091D92FF091DA2F4085518564E6D9
:10426000649F9001659F300D11243F932F932DE1A2
:104270003DE03F932F9322E02F931F929F938F93C4
:104280000E9409798DB79EB708968DBF9EBF85E6BF
:104290000895CF93DF931F921F92CDB7DEB7FB0136
:1042A00020812F33B1F42181211113C02BEE3CE08A
:1042B0003F932F9322E02F931F929F938F930E94FF
:1042C00009790F900F900F900F900F900F9085E647
:1042D0002EC089E592E089839A83CE0101969F934F
:1042E0008F9387EE9CE09F938F937F936F930E94B1
:1042F0003F790F900F900F900F900F900F90892B98
:10430000A9F069817A816935F2E07F0778F4E0915C
:10431000D92FF091DA2F60877187CF01805D9F429E
:104320008F5F9F4F0E944A7F84E601C08AEC0F9006
:104330000F90DF91CF910895E091D92FF091DA2F6E
:1043400023852F9322852F9324EE3CE03F932F93D8
:1043500022E02F931F929F938F930E9409798DB72C
:104360009EB708968DBF9EBF85E60895CF93DF93D5
:104370001F921F92CDB7DEB7FB0120812F33B1F41E
:104380002181211113C02FE02F932FEF2F9323E9C9
:104390003CE03F932F9322E02F931F929F938F93A4
:1043A0000E940979CDBFDEBF85E630C019821A822E
:1043B000CE0101969F938F938FE89CE09F938F93FC
:1043C0007F936F930E943F790F900F900F900F9003
:1043D0000F900F90892BC9F069817A81611590E166
:1043E000790798F46093380370933903E091D92FDB
:1043F000F091DA2F62877387CF018E5C9F428F5FC7
:104400009F4F0E944A7F84E601C08AEC0F900F9074
:10441000DF91CF910895FB0120812F33D9F42181C1
:10442000211121C01F9220E32F931F9221E32F938C
:1044300029E83CE03F932F9322E02F931F929F9314
:104440008F930E9409798DB79EB70A968DBF9EBF44
:1044500085E60895213311F429D403C0203319F4DB
:104460004BD484E608958AEC0895FC0180910008FD
:10447000813029F480918C0891E0833009F090E03C
:1044800090FF02C081E301C080E38083118285E652
:104490000895E091D92FF091DA2F85818B3079F44E
:1044A000E091C52FF091C62F199584E080931C2DC3
:1044B0000E9412500E942B2F8CE190E50EC08A3092
:1044C00091F4E091C52FF091C62F199581E080936A
:1044D000F82D0E941E5883E398E58093A72C9093B3
:1044E000A82C8FEF089589EC08958BE00E94951019
:1044F000E091C52FF091C62F199587E080931C2D70
:104500000E9412500E942B2F8CE190E58093A72CE3
:104510009093A82C8FEF089521E73CE03F932F93D1
:1045200022E02F931F929F938F930E9409790F90FF
:104530000F900F900F900F900F9085E6089521E057
:104540002093A62C2093A52C2CE32093A32C25E0CC
:1045500030E02093A12C3093A22C10929B2C10922F
:104560009C2C10929D2C10929E2C8093992C9093B1
:104570009A2C089527E02093A62C2CE231E020937A
:10458000A12C3093A22C10929B2C10929C2C109258
:104590009D2C10929E2C8093992C90939A2C089588
:1045A000CF939091A62C953009F441C030F493300C
:1045B00019F130F5913068F43FC1973009F4AAC081
:1045C00008F44AC0983009F4ACC0993009F495C099
:1045D00033C1813031F410929F2C1092A02C83E0D3
:1045E00023C0843011F466E084C0883109F485C0AA
:1045F0008B3109F084C081C08093A42C84E014C066
:1046000090E04091A42C2FEF30E0241B3109821759
:10461000930721F485E008C0891779F165E183E00B
:1046200090E20E94D77482E08093A62C68C020910B
:104630009F2C3091A02CA9014F5F5F4F40939F2C7E
:104640005093A02CF901E55CFF4C80834038510564
:1046500009F055C086E0E8CF2091A42C9091A52CBC
:1046600029134FC0EBE3F0E32BEB30E390E02E1780
:104670003F0791F24191940FFACF40919B2C5091BA
:104680009C2C60919D2C70919E2CE091992CF09126
:104690009A2C20E830E08BE390E31995C82F88230B
:1046A00011F18091A52C8F5F8093A52C80919B2C7C
:1046B00090919C2CA0919D2CB0919E2C80589F4F46
:1046C000AF4FBF4F80939B2C90939C2CA0939D2C1D
:1046D000B0939E2C66E083E090E20E94D77482E063
:1046E0008093A62CAAC068E183E090E20E94D77470
:1046F00068E183E090E20E94D7741092A62CC1E09A
:104700009CC030E0892F90E001972817390781F786
:1047100066E085CF853119F41092A52C08C08B3145
:1047200061F3883109F45FCF863009F05AC0809177
:10473000A52C8F5F8093A52C40919B2C50919C2C95
:1047400060919D2C70919E2CE091992CF0919A2C67
:1047500020E830E08BE390E31995C82F8823D1F14E
:1047600061E083E090E20E94D7746091A52C83E021
:1047700090E20E94D7746091A52C609583E090E24E
:104780000E94D77460E870E08BE390E321D8EBE3FC
:10479000F0E360E080E3EB3BF80719F08191680FEC
:1047A000F9CF83E090E20E94D77480919B2C909186
:1047B0009C2CA0919D2CB0919E2C80589F4FAF4F68
:1047C000BF4F80939B2C90939C2CA0939D2CB093D7
:1047D0009E2C33C064E083E090E20E94D77489E0AD
:1047E00023CF853109F08BCF61E083E090E20E9416
:1047F000D7746091A52C83E090E20E94D7746091F9
:10480000A52C609583E090E20E94D77460E870E088
:104810008BE390E30E94E81BEBE3F0E38BEB90E388
:1048200060E08E179F0719F02191620FFACF83E0A5
:1048300090E20E94D77463CFC0E08C2FCF9108958F
:104840008091A62C813019F0873029F1089580914C
:10485000A12C9091A22C9C01215031092093A12CD4
:104860003093A22C892B31F58091A32C9FEF980FC8
:104870009093A32C882331F065E183E090E20E94BD
:10488000D77402C01092A62C85E090E08093A12CF2
:104890009093A22C08958091A12C9091A22C9C0120
:1048A000215031092093A12C3093A22C892B11F493
:1048B0001092A62C0895E3E3FEE020E030E094910E
:1048C000981309C041E2429FC001439F900D1124FB
:1048D0008C5C914F08952F5F3F4FB1962930310581
:1048E00071F780E090E00895262FBA012F3311F47C
:1048F000469607C02D3311F4449611C021110CC007
:104900004096FC01259134912115310521F18BE36D
:1049100090E3F90119950DC02032E9F44296FC01AB
:104920002591349121153105B1F08BE390E3F90124
:1049300019958F3F89F491E09093AB2C4EB15FB104
:104940002091080430910904242B352B2093A92CA5
:104950003093AA2C089589EC08950F931F93CF9359
:10496000DF938C01CCE5DFE0BE01C8010E947B78BB
:10497000892B49F440E050E060E0CE01DF91CF9117
:104980001F910F91B1CF689683E1CC34D80761F7BE
:10499000DF91CF911F910F910895CF92DF92EF9207
:1049A000FF921F93CF93DF93982F9F7D91549A315D
:1049B00060F090ED980F9A3040F08F3531F0982FDD
:1049C0009D7F9D3311F08032D1F49FE9980F9A3189
:1049D00008F480522091AC2C3091AD2C2F3F91E007
:1049E000390708F098C0A9014F5F5F4F4093AC2C86
:1049F0005093AD2CF901E55CFF4C80838CC08D3069
:104A000009F075C0E091AC2CF091AD2CE55CFF4C49
:104A100010821092AC2C1092AD2C8091AB2C811195
:104A20007AC080913B30982F9F7D81F18D7F8D33AF
:104A300069F1EBE3F0E37F011191112331F01F33B2
:104A400021F01D3311F01032B1F7F7011082CCE5DF
:104A5000DFE08CE4C82E83E1D82EBE018BE390E327
:104A60000E947B78892B71F410923B30A7014F5F35
:104A70005F4F612FCE0138DFC82F8F3F09F44BC045
:104A8000D1E006C06896CC16DD0639F7D0E0C8EC58
:104A9000E091D92FF091DA2F8581813121F48C2F8B
:104AA0000ADF0E94DB598C2F06DF0E94D71B80E3B0
:104AB0009EE00E94D71BDD2371F180913B3088235B
:104AC00051F1E091D92FF091DA2F8581813131F4C4
:104AD0008BE390E380933B3290933C328BE390E303
:104AE0000E94D21B8DE29EE00E94D71B14C088302A
:104AF00061F48091AC2C9091AD2C009761F00197FE
:104B00008093AC2C9093AD2C06C08B3121F4109285
:104B1000AC2C1092AD2C81E0DF91CF911F91FF90D2
:104B2000EF90DF90CF9008958091AB2C882399F17E
:104B3000E091D92FF091DA2F2085318521153105AB
:104B400051F14EB15FB18091080490910904842B1A
:104B5000952B4091A92C5091AA2C841B950B64E6AF
:104B600070E00E94EA7762177307A8F01092AB2CEE
:104B70008BECA1DE0E94D71B8AE29EE00E94D71B2D
:104B8000E091A72CF091A82C309729F0199510925C
:104B9000A72C1092A82C08958091AB2C8823A9F003
:104BA0001092AB2C8BEC87DE0E94D71B8AE29EE032
:104BB0000E94D71BE091A72CF091A82C309729F0E8
:104BC00019951092A72C1092A82C0895CF93DF93DB
:104BD0009091AB2C9923A9F0EB011092AB2C6BDEDA
:104BE0000E94D71B87E29EE00E94D71B209749F0C6
:104BF000CE010E94D21B84E29EE0DF91CF910C9403
:104C0000D71BDF91CF910895EF92FF920F931F93DF
:104C1000CF937C019B01613081E0780710F020E0A8
:104C200031E08B01021B130BA70160E072E08BE304
:104C300090E30E9432118BE390E30E94D21BC1E00B
:104C4000013081E01807A8F01A954C2F50E0542F3E
:104C500044274E0D5F1D20E032E060E072E08BE300
:104C600090E30E9432118BE390E30E94D21BCF5F4E
:104C7000E7CF0115110589F04C2F50E0542F442740
:104C80004E0D5F1D980160E072E08BE390E30E949F
:104C900032118BE390E30E94D21B81E29EE0CF9120
:104CA0001F910F91FF90EF900C94D71B80910008FB
:104CB000813021F490918C08933009F080E080FDE0
:104CC0001AC08091B02C811116C081E08093000839
:104CD00093E090938C088093AE2C1092AF2C2EB161
:104CE0003FB18091080490910904822B932B80930B
:104CF000B52C9093B62C089510928C081092000851
:104D0000EEEAFCE21082118208959091AE2C992374
:104D1000F1F08091AF2C811115C02091AE2C22238F
:104D2000B9F04EB15FB12091080430910904242BF1
:104D3000352B4091B52C5091B62C241B350B2634C5
:104D4000310530F081E08093AF2C892F089581E008
:104D50000895CF93C091B02CCC23C1F02EB13FB1B8
:104D60008091080490910904822B932B2091B32CFD
:104D70003091B42C821B930B2091B12C3091B22C2A
:104D80008217930718F01092B02C90DF8C2FCF91E0
:104D90000895E091D92FF091DA2F8287938780933D
:104DA0003803909339030895E091D92FF091DA2FC9
:104DB000828593854096828793878093380390936A
:104DC0003903828593850895E091D92FF091DA2FE8
:104DD00080E991E082879387809338039093390329
:104DE0000895A0E2B6E081E015968C9315972DE327
:104DF00032E328B939B92DEB32E32AB93BB910B8FF
:104E000013B812B816B817B811B8E0E0F9E010A25C
:104E100011A22FEF30E026A337A32FEF3FEF20A7FB
:104E200031A7808398E8938390E1948793E09783F8
:104E30001C968C931C9782E01A968C9308951F926F
:104E40000F920FB60F92112408B60F9218BE0BB630
:104E50000F921BBE8F939F93EF93FF93E0E0F9E0D7
:104E600013828FE790E086AB97AB81E190E080AF53
:104E700091AFE0E0FAE010A211A28FEF9FEF86A3BE
:104E800097A389E88383168281E084878EE08083FC
:104E900010922A06FF91EF919F918F910F900BBE78
:104EA0000F9008BE0F900FBE0F901F9018951F9285
:104EB0000F920FB60F92112408B60F9218BE0BB6C0
:104EC0000F921BBE2F933F938F939F93EF93FF936C
:104ED0002091280693B1267081E009F080E0990FB7
:104EE000892B83B982B1882309F463C012B883B1D6
:104EF0008770873059F51092000980E180930C0982
:104F00001092030A1B9B03C08CEA94E002C08CE65B
:104F100094E08093260A9093270A82E081B981E089
:104F200080930C0A83E08093060A86B197B187705C
:104F300049F090B18F5F893011F09695FBCFE8B1C1
:104F4000F9B1908381E08093B72C36C083B1982F5C
:104F50009C7091F1847091B191111CC020B1269583
:104F6000882311F080E001C080E8282B20B986B1A9
:104F700097B1019686B997B987709927892BE1F483
:104F8000E8B1F9B1CF01019688B999B9208381E0E0
:104F900081B912C091B1913079F4EAB1FBB19F01AE
:104FA0002F5F3F4F2AB93BB9811190E0908311B830
:104FB00003C082B1809582B988E880930309FF918C
:104FC000EF919F918F913F912F910F900BBE0F907A
:104FD00008BE0F900FBE0F901F9018951F920F9252
:104FE0000FB60F92112408B60F9218BE0BB60F928F
:104FF0001BBE2F933F938F939F93EF93FF9381B1AA
:10500000823008F49DC081B18D3008F099C0E1B1C3
:10501000F0E0EE0FFF1FEA5DFF4D0190F081E02D03
:1050200019948FE790E08093260A9093270A88C00E
:105030008E9A8EE0809340088FE390E08093260A5A
:105040009093270A85E06FC08E9886E081B98FEF34
:1050500082B914B815B8E8B1F9B1808180B970C0CF
:10506000009B05C08E9A82B1809582B901C08E984E
:1050700087E059C0009B02C08E9801C08E9A80B113
:10508000869580B984B195B1019684B995B984B1FA
:1050900095B187709927892B11F488E044C024B119
:1050A00035B186B197B128173907B1F52BC0EAB1F0
:1050B000FBB1309711F0808101C082B1882311F0DB
:1050C0008E9A01C08E9889E02EC0EAB1FBB130976C
:1050D00051F08081882311F08E9801C08E9A31960C
:1050E000EAB9FBB908C082B1882311F08E9801C0DB
:1050F0008E9A8FEF82B924B135B186B197B1281756
:10510000390711F48AE00FC0E8B1F9B1CF01019677
:1051100088B999B9818180B986E005C08E988BE005
:1051200002C08E988CE081B90BC01092000A1092D8
:10513000060A109240081092410881E08093B82C32
:10514000FF91EF919F918F913F912F910F900BBE07
:105150000F9008BE0F900FBE0F901F901895CF9321
:10516000DF93E7EBFCE21082118280EE99E28093FC
:10517000B72E9093B82E8FE197E28093B92F90933A
:10518000BA2FE0E4F6E0128A84E08283C0E8D1E03E
:1051900082E68E83A0E2B6E081E016968C931697A5
:1051A00011968C93119796E012969C9312975196B4
:1051B0008C93519732E052963C9352971A961C92D8
:1051C0001A971B961C921B979FE019969C9399E542
:1051D00098832AE529839A8390E491839683A0EBB0
:1051E000B0E012962C911297207F12962C93129772
:1051F00012962C911297226012962C9320E3218311
:105200002683908B8683358383E08183E0E0F8E01A
:1052100083E1818321E030E026A337A320A731A7D3
:10522000E0E8F8E014868083E0E2F3E01382118284
:1052300088E0828391E19083A091D92FB091DA2FF9
:105240001A962D913C911B97208F318FE0E8F3E067
:105250009CE39283808393838183DF91CF91C1CD3F
:10526000A0E2B6E01A961C921A97E7EBFCE21082D5
:105270001182E0E0F9E010821382178280E18487D6
:10528000E0E0FAE010821382168281E08487E0E495
:10529000F8E01082118216968C938E980895CF9321
:1052A000DF938091B72C882309F47EC01092B72C2D
:1052B000C6B1D7B1C730D10508F471C0AE01495F9E
:1052C0005F4F93E0569547959A95E1F7E091D62F79
:1052D000F091D72F6DE372E380E41995E091D92F17
:1052E000F091DA2F8781883019F483E18093952C2F
:1052F0008681883019F483E18093942CE091CB2F40
:10530000F091CC2FBE018DE392E31995EC0194FF4F
:1053100006C0DF7E8DEB92E38AB99BB902C01AB852
:105320001BB82097E1F1AE01495F5F4F83E05695CE
:1053300047958A95E1F7E091D62FF091D72F6DE34D
:1053400072E381E41995E091D92FF091DA2F8781EA
:10535000893019F483E18093952C8681893019F482
:1053600083E18093942CC6B9D7B98DE392E388B9D1
:1053700099B910926008109261088FE090E08093D4
:1053800066089093670888E090E080936A0890939D
:105390006B0883E28093410883E081B905C01092D5
:1053A000000A1092060A1DDD8091B82C882329F08E
:1053B0001092B82CDF91CF9114CDDF91CF91089549
:1053C0001F920F920FB60F92112408B60F9218BEBB
:1053D0000BB60F921BBE2F933F938F939F93EF9328
:1053E000FF93E0E0F9E080E484871782E0E8F3E0EF
:1053F00082E0878389EB81838DE392E38AB99BB94D
:1054000081E090E084B995B916B82EB13FB1809192
:10541000080490910904822B932B8093BA2C9093CB
:10542000BB2C81E08093BE2C18B817B81092B92C11
:1054300088E080938706FF91EF919F918F913F9134
:105440002F910F900BBE0F9008BE0F900FBE0F90C4
:105450001F901895CF93DF93E0E4F6E0128A84E082
:105460008283C0E8D1E082E68E83A0E2B6E081E0EC
:1054700016968C93169711968C93119796E0129628
:105480009C93129751968C93519732E052963C938D
:1054900052971A961C921A971B961C921B979FE084
:1054A00019969C93199799E598832AE529839A83FD
:1054B00090E491839683C0EBD0E02A81207F2A83F9
:1054C0002A8122602A8320E321832683908B86838E
:1054D000358393E09183E0E0F8E093E1918321E06C
:1054E00030E026A337A320A731A7E0E8F8E0148630
:1054F0009083E0E2F3E01382118298E0928321E14D
:105500002083C091D92FD091DA2F2A853B85208F17
:10551000318FE0E8F3E02CE32283908323839183AF
:1055200020EE39E22093B72E3093B82E15968C9347
:10553000E0E0F9E02FEF30E026A337A312A613A690
:1055400014A615A610821682178280831092000A74
:105550001092B92CECEBFCE2108212821182DF91E6
:10556000CF91089581E080932606C6DBE0E0F9E064
:1055700010821782E0E0FAE010821782ECEBFCE286
:105580001182128210820895E0E0F9E08FEF94E03A
:1055900086A397A380E6848780E387838FEF90E0DC
:1055A00086AB97AB88E08093870608951F920F9291
:1055B0000FB60F92112408B60F9218BE0BB60F92B9
:1055C0001BBE2F933F934F935F938F939F93EF93C4
:1055D000FF931092070A1092000A10924709109246
:1055E0004009809181038E7F8093810384B195B1BE
:1055F00080FF1AC0379B03C086B1869503C086B171
:105600008695806886B984B195B1019684B995B9BB
:1056100087709927892B41F4EAB1FBB1CF0101963C
:105620008AB99BB986B1808384B195B18770992777
:10563000892BC9F0E4B1F5B186B144B155B193E01D
:10564000F695E7959A95E1F7E35CFD4C90E047709D
:10565000552728E030E0241B350B02C0959587952F
:105660002A95E2F7808381E08093BD2C1092BE2CB6
:105670008FEF9FEF8093260A9093270A1092200ABB
:105680001092210A1092060A1092070A1092030A39
:1056900084E08093000A83E08093B92CFF91EF911E
:1056A0009F918F915F914F913F912F910F900BBEE2
:1056B0000F9008BE0F900FBE0F901F9018951F926D
:1056C0000F920FB60F92112408B60F9218BE0BB6A8
:1056D0000F921BBE8F93EF93FF93E0E8F3E081817D
:1056E0008F7C8183E0E0FAE088E8838381E0808337
:1056F000FF91EF918F910F900BBE0F9008BE0F900E
:105700000FBE0F901F9018951F920F920FB60F9219
:10571000112408B60F9218BE0BB60F921BBE8F93C2
:105720009F93EF93FF93809160091092600910920C
:10573000610993E090934009813520F4813308F4A6
:1057400072C01BC08137E8F484B195B180FF2EC0D0
:1057500086B18695806886B984B195B1019684B981
:1057600095B987709927892B41F4EAB1FBB1CF0134
:1057700001968AB99BB986B1808386B18695806887
:105780002CC086B18695806886B984B195B10196A2
:1057900084B995B987709927892B41F4EAB1FBB197
:1057A000CF0101968AB99BB986B1808386B186956F
:1057B000806886B984B195B1019684B995B987702E
:1057C0009927892B41F4EAB1FBB1CF0101968AB93F
:1057D0009BB986B1808386B1869586B984B195B12F
:1057E000019684B995B987709927892B41F4EAB15C
:1057F000FBB1CF0101968AB99BB986B1808386B18E
:10580000869586B984B195B1019684B995B98770AA
:105810009927892B41F4EAB1FBB1CF0101968AB9EE
:105820009BB986B18083FF91EF919F918F910F90EB
:105830000BBE0F9008BE0F900FBE0F901F901895D3
:105840000F931F93CF93DF93CDB7DEB7DA95CDBF1C
:10585000DEBF8091BE2C882309F483C04EB15FB1B6
:1058600080910804909109042091BA2C3091BB2CAE
:10587000842B952B821B930B20911E2030911F208F
:105880002F5F3F4F2817390708F06BC01092070AA7
:105890001092000A109247091092400980918103EA
:1058A0008E7F8093810384B195B180FF1AC0379BAE
:1058B00003C086B1869503C086B18695806886B997
:1058C00084B195B1019684B995B987709927892BD0
:1058D00041F4EAB1FBB1CF0101968AB99BB986B117
:1058E000808384B195B187709927892BC9F0E4B181
:1058F000F5B186B144B155B113E0F695E7951A9527
:10590000E1F7E35CFD4C90E04770552728E030E07C
:10591000241B350B02C0959587952A95E2F7808365
:1059200081E08093BD2C1092BE2C2FEF3FEF20938F
:10593000260A3093270A1092200A1092210A109208
:10594000060A1092070A1092030A94E09093000A44
:1059500093E09093B92C14B815B88093BD2C109295
:10596000BE2CF7D981116FC2D0D9882309F46BC23C
:105970008091BE2C811167C28091BC2C811105C021
:105980008091BD2C882309F45EC28091B92C8330AC
:1059900041F48091200A9091210A8532914008F4C7
:1059A00052C28091BD2C882309F4A2C084B195B164
:1059B000892B09F49DC084B195B1089718F414B8E7
:1059C00015B896C044B155B1495F5F4FB3E05695E5
:1059D0004795BA95E1F76DE372E3CE0101960E9417
:1059E000A0788DE392E38AB99BB944B155B114B85C
:1059F00015B8898186958695898322E030E0241741
:105A00003507B0F5F901A3E0F695E795AA95E1F71A
:105A100081E090E08C0F9D1FE80FF91F8081982F87
:105A20009695969590838370813049F030F082305E
:105A3000D1F486B18695806804C081E015C086B136
:105A4000869586B984B195B1019684B995B9877068
:105A50009927892B41F4EAB1FBB1CF0101968AB9AC
:105A60009BB986B1808380E02E5F3F4F882339F257
:105A700084B195B187709927892BC9F0E4B1F5B14C
:105A800086B144B155B173E0F695E7957A95E1F7A3
:105A9000E35CFD4C90E04770552728E030E0241B84
:105AA000350B02C0959587952A95E2F78083E091A2
:105AB000D92FF091DA2F8781883019F483E1809310
:105AC000952C8681883019F483E18093942C44B11D
:105AD00055B1495F5F4F63E0569547956A95E1F789
